:0400000007EF00F016
:0A000800578229ED10F0C1EF11F04E
:10080000000204081043757272656E74205370659F
:1008100065643A2025640A00537065656420496E5A
:10082000637265617365640A0072616E646F6D2046
:1008300076616C3A2025640A00427574746F6E20EC
:1008400076616C3A2025640A0047616D65204F7619
:100850006572210A0053636F72653A2025640A00AD
:10086000486974733A2025640A004661696C7320F4
:1008700025640A004C6F737365720A002530386C6A
:10088000582000202530386C580020253032580080
:10089000202530345800486974210A0020200000C7
:1008A00018C0F6FF19C0F7FF0800F5CF9CF0184AF2
:1008B000192A00019C51D8A460EF04F062EF04F003
:1008C00064EF04F037EF08F0250E9C19D8B46BEFF5
:1008D00004F06DEF04F078EF04F016C00AF017C0D2
:1008E0000BF09CC00CF00D6A27EC12F050EF04F0F6
:1008F000000E956F000E946F94C092F095C093F027
:10090000200E836F9669976918C0F6FF19C0F7FF2C
:100910000800F5CF9CF0184A192A300E9C19D8A46B
:1009200094EF04F096EF04F0A3EF04F0300E836F21
:1009300018C0F6FF19C0F7FF0800F5CF9CF0184A61
:10094000192AB2EF04F02D0E9C19D8A4AAEF04F0D6
:10095000ACEF04F0B2EF04F0000E936F020E926F52
:1009600098EF04F02A0E9C19D8A4B9EF04F0BBEF5D
:1009700004F00FEF05F01AC0D9FF1BC0DAFFDFCF7C
:100980001CF0020EDE26DFCF1DF0000EDD221CC0A3
:10099000D9FF1DC0DAFFDECF8AF0DDCF8BF08BBF31
:1009A000D6EF04F0D4EF04F0E2EF04F08A5100082F
:1009B0008A6F8B51D8A0E82A00088B6F000E936FC6
:1009C000020E926F8AC094F08BC095F018C0F6FFAB
:1009D00019C0F7FF0800F5CF9CF0184A192A1FEF3D
:1009E00005F094C009F095C00AF0000E0C6E0A0ED6
:1009F0000B6EAAEC13F000019C510926000E0A228E
:100A0000D00E0924946FFF0E0A20956F18C0F6FFD0
:100A100019C0F7FF0800F5CF9CF0184A192A2F0ECD
:100A20009C6515EF05F017EF05F01FEF05F0390E87
:100A30009C651DEF05F01FEF05F0F1EF04F02E0EA1
:100A40009C19D8A426EF05F028EF05F08FEF05F0EC
:100A500018C0F6FF19C0F7FF0800F5CF9CF0184A40
:100A6000192A2A0E9C19D8A438EF05F03AEF05F0A0
:100A700059EF05F01AC0D9FF1BC0DAFFDFCF1CF019
:100A8000020EDE26DFCF1DF0000EDD221CC0D9FFD6
:100A90001DC0DAFFDECF96F0DDCF97F018C0F6FF6D
:100AA00019C0F7FF0800F5CF9CF0184A192A8FEFFC
:100AB00005F0000E976F000E966F7DEF05F096C063
:100AC00009F097C00AF0000E0C6E0A0E0B6EAAEC2D
:100AD00013F000019C510926000E0A22D00E0924B1
:100AE000966FFF0E0A20976F18C0F6FF19C0F7FF28
:100AF0000800F5CF9CF0184A192A2F0E9C6583EF49
:100B000005F085EF05F08FEF05F0390E9C658BEF52
:100B100005F08DEF05F05FEF05F08FEF05F06C0E3F
:100B20009C19D8A496EF05F098EF05F0A2EF05F018
:100B3000928518C0F6FF19C0F7FF0800F5CF9CF0AA
:100B4000184A192A9C51D8A4A8EF05F0AAEF05F07D
:100B5000A8EF06F037EF08F0000E856F020E846FE5
:100B6000D5EF06F0000E856F080E846FD5EF06F006
:100B7000000E856F0A0E846FD5EF06F0000E856FAC
:100B8000100E846FD5EF06F016C00AF017C00BF0F8
:100B90001AC0D9FF1BC0DAFFDFCF1CF0020EDE2621
:100BA000DFCF1DF0000EDD221CC0D9FF1DC0DAFF13
:100BB000DF501E6E1E500C6E0D6A27EC12F050EFC7
:100BC00004F01AC0D9FF1BC0DAFFDFCF1CF0020E01
:100BD000DE26DFCF1DF0000EDD221CC0D9FF1DC0B8
:100BE000DAFFDECF90F0DDCF91F090519111D8A4D3
:100BF000FCEF05F0FEEF05F002EF06F0540E906FEB
:100C0000080E916F90C009F091C00AF0A5EC12F0A7
:100C100009C098F00AC099F0000197BF12EF06F0E2
:100C200014EF06F031EF06F09851965D99519759FF
:100C3000D8B01DEF06F01FEF06F031EF06F096C0BA
:100C400098F097C099F031EF06F016C00AF017C07F
:100C50000BF083C00CF00D6A27EC12F00001984BEA
:100C6000992B92B336EF06F038EF06F062EF06F0FC
:100C70009451985D95519959D8A041EF06F043EFF2
:100C800006F025EF06F062EF06F016C00AF017C076
:100C90000BF090C0F6FF91C0F7FFF86A070EF764FB
:100CA00003D00800F55005D0F6CFD9FFF7CFDAFF13
:100CB000DF501C6E1C500C6E0D6A27EC12F0000108
:100CC000904B912B90C0F6FF91C0F7FFF86A070E8A
:100CD000F76403D00800F55005D0F6CFD9FFF7CF61
:100CE000DAFFDF500009D8B478EF06F07AEF06F0AB
:100CF00094EF06F000019607D8A09707962906E121
:100D00009729D8A486EF06F088EF06F045EF06F0A5
:100D100094EF06F016C00AF017C00BF0000E0D6E2F
:100D2000200E0C6E27EC12F0000198511C6E9951A8
:100D30001D6E984B992B94511C5C95511D58D8A051
:100D4000A4EF06F0A6EF06F08AEF06F050EF04F0ED
:100D50009C511C6E1D6A1D50000AD8B4B2EF06F0FB
:100D60006DEF04F01C50580AD8B4BEEF05F03A0AF3
:100D7000D8B4ACEF05F0010AD8B4C4EF05F0070A07
:100D8000D8B4B8EF05F00B0AD8B4B2EF05F01C0ADE
:100D9000D8B4E1EF05F0060AD8B4B8EF05F00D0AB3
:100DA000D8B4BEEF05F06DEF04F092A5DAEF06F0CF
:100DB000DCEF06F0F6EF06F01AC0D9FF1BC0DAFF31
:100DC000DFCF1CF0040EDE26DFCF1DF0000EDD228B
:100DD0001CC0D9FF1DC0DAFFDECF8CF0DECF8DF056
:100DE000DECF8EF0DECF8FF034EF07F0640E9C196B
:100DF000D8B4FDEF06F0FFEF06F01BEF07F01AC0C6
:100E0000D9FF1BC0DAFFDFCF1CF0020EDE26DFCFDA
:100E10001DF0000EDD221CC0D9FF1DC0DAFFDECFA1
:100E20001EF0DDCF1FF01EC08CF01FC08DF08E6B4A
:100E30008F6B34EF07F01AC0D9FF1BC0DAFFDFCF8A
:100E40001CF0020EDE26DFCF1DF0000EDD221CC0DE
:100E5000D9FF1DC0DAFFDECF8CF0DDCF8DF0000EA4
:100E60008DBFFF0E8E6F8F6F640E9C19D8A43BEF61
:100E700007F03DEF07F04EEF07F08FBF44EF07F0AC
:100E800042EF07F04EEF07F08C6D8D1FD8B08D2B21
:100E90008E1FD8B08E2B000E8F579281000E9B6F45
:100EA000000E9A6F8CC086F08DC087F08EC088F0DF
:100EB0008FC089F086C009F087C00AF088C00BF0A7
:100EC00089C00CF084C00DF085C00EF00F6A106A66
:100ED00012EC11F009500001826F86C009F087C042
:100EE0000AF088C00BF089C00CF084C00DF085C0FA
:100EF0000EF00F6A106AD7EC0FF009C086F00AC036
:100F000087F00BC088F00CC089F0090E00018265E3
:100F10008CEF07F08EEF07F0A3EF07F0780E9C1927
:100F2000D8B495EF07F097EF07F09DEF07F0000EAC
:100F3000816F070E806FA1EF07F0000E816F270E03
:100F4000806F80518227600E9A25D96E000E9B21FA
:100F5000DA6E8251300FDF6E9A4B9B2B86518711D0
:100F600088118911D8B4B7EF07F0B9EF07F0C4EFD3
:100F700007F09B5109E1200E9A5DD8A0C2EF07F05F
:100F8000C4EF07F05AEF07F092A1C9EF07F0CBEFDB
:100F900007F0D5EF07F0600E9A25D96E000E9B2161
:100FA000DA6E2D0EDF6E9A4B9B2B9AC098F09BC089
:100FB00099F0E7EF07F016C00AF017C00BF083C0F6
:100FC0000CF00D6A27EC12F00001984B992B92B3AC
:100FD000ECEF07F0EEEF07F0F9EF07F09451985DB2
:100FE00095519959D8A0F7EF07F0F9EF07F0DBEF2B
:100FF00007F016C00AF017C00BF09A07D8A09B079D
:10100000600E9A25D96E000E9B21DA6EDF501C6EA1
:101010001C500C6E0D6A27EC12F000019A519B11C6
:10102000D8A415EF08F017EF08F0F9EF07F023EF59
:1010300008F016C00AF017C00BF0000E0D6E200E5F
:101040000C6E27EC12F0000198511C6E99511D6E28
:10105000984B992B94511C5C95511D58D8A033EF97
:1010600008F035EF08F019EF08F050EF04F0120027
:101070003350800B3C6E335033243E6E32AE43EF20
:1010800008F045EF08F046EF08F03E803E50D8B437
:101090004CEF08F04EEF08F063EF08F03E28D8A4BC
:1010A00054EF08F056EF08F05EEF08F0000E306ED7
:1010B000000E316E000E326E000E336E328E000E58
:1010C000336E6BEF08F0000E306E000E316E000EC6
:1010D000326E000E336E3750800B3D6E3C503D1823
:1010E000D8B475EF08F077EF08F078EF08F03C8C93
:1010F000375037243D6E36AE80EF08F082EF08F0AF
:1011000083EF08F03D803D50D8B489EF08F08BEFB5
:1011100008F0A0EF08F03D28D8A491EF08F093EF75
:1011200008F09BEF08F0000E346E000E356E000ED6
:10113000366E000E376E368E000E376EA8EF08F052
:10114000000E346E000E356E000E366E000E376ED9
:101150003E503D5CD8B0AFEF08F0B1EF08F0D8EFEB
:1011600008F03CACB6EF08F0B8EF08F0BAEF08F0C2
:10117000800E3C1A3EC03FF03DC03EF03FC03DF007
:1011800030C03FF034C030F03FC034F031C03FF0E9
:1011900035C031F03FC035F032C03FF036C032F0DC
:1011A0003FC036F033C03FF037C033F03FC037F0B8
:1011B000000E3F6E3E503DC038F0396A385E000E7A
:1011C000395A39BEEDEF08F0395009E11A0E385C92
:1011D000D8A0EDEF08F0EFEF08F026EF09F030505F
:1011E000311032103310D8A4F8EF08F0FBEF08F0FC
:1011F000010EFCEF08F0000E3F6E000E306E000E88
:10120000316E000E326E000E336E3DC03EF02FEF99
:1012100009F03FA00EEF09F010EF09F016EF09F00A
:10122000D8903F3001093F6E18EF09F0D8903F3257
:1012300030A01DEF09F01FEF09F020EF09F03F8EFD
:10124000333433323232313230323E2A3D503E5C1A
:10125000D8A02DEF09F02FEF09F009EF09F03CBC01
:1012600034EF09F036EF09F076EF09F03E50D8A4DC
:101270003CEF09F03EEF09F048EF09F0000E306E48
:10128000000E316E000E326E000E336E97EF0AF0D4
:1012900034503026355031223650322237503322E6
:1012A00033A055EF09F057EF09F003EF0AF03FA024
:1012B0005CEF09F05EEF09F064EF09F0D8903F3081
:1012C00001093F6E66EF09F0D8903F3230A06BEF16
:1012D00009F06DEF09F06EEF09F03F8E33343332D1
:1012E0003232313230323E2A03EF0AF03450305C71
:1012F00035503158365032583350800A386E375096
:10130000800A3858D8B087EF09F089EF09F0B4EFB8
:1013100009F03050345C386E31503558396E3250E7
:1013200036583A6E335037583B6EFF0E3824306EC5
:10133000FF0E3920316EFF0E3A20326EFF0E3B2039
:10134000336E800E3C1A3F6C3F50D8A4AAEF09F0D0
:10135000ACEF09F0BCEF09F0010E3026000E31228F
:1013600032223322BCEF09F03450305E3550315A0E
:101370003650325A3750335A305031103210331001
:10138000D8A4C5EF09F0C7EF09F0FCEF09F03F5012
:10139000D8A4CDEF09F0CFEF09F0FCEF09F0000E73
:1013A000306E000E316E000E326E000E336E97EF0F
:1013B0000AF0D89030363136323633363FAEE3EF6E
:1013C00009F0E5EF09F0E6EF09F030803FA0EBEF20
:1013D00009F0EDEF09F0F1EF09F0D8803F36F3EFB7
:1013E00009F0D8903F363E50D8B4F9EF09F0FBEF42
:1013F00009F0FCEF09F03E0632AE01EF0AF003EF10
:101400000AF0D9EF09F0000E3D6E3FAE0AEF0AF088
:101410000CEF0AF024EF0AF03FC038F07F0E3816C8
:10142000D8B415EF0AF017EF0AF01BEF0AF0010E1F
:101430003D6E24EF0AF030A020EF0AF022EF0AF010
:1014400024EF0AF017EF0AF03D50D8B42AEF0AF063
:101450002CEF0AF057EF0AF0010E3026000E312271
:101460003222332233A037EF0AF039EF0AF057EF78
:101470000AF030C038F031C039F032C03AF033C031
:101480003BF03B343B323A323932383238C030F0FC
:1014900039C031F03AC032F03BC033F03E28D8B406
:1014A00054EF0AF056EF0AF057EF0AF03E2A3E28B2
:1014B000D8B45DEF0AF05FEF0AF067EF0AF03E5034
:1014C000D8A465EF0AF067EF0AF079EF0AF0000E92
:1014D000306E000E316E000E326E000E336E3E50D6
:1014E000D8A475EF0AF077EF0AF079EF0AF0000E52
:1014F0003C6E3EA07EEF0AF080EF0AF083EF0AF028
:10150000328E84EF0AF0329ED8903E30336E3CAE7D
:101510008CEF0AF08EEF0AF08FEF0AF0338E30C0B6
:1015200030F031C031F032C032F033C033F012004D
:101530001A50800B276E1A501A242E6E19AEA3EF84
:101540000AF0A5EF0AF0A6EF0AF02E802E50D8B4CC
:10155000ACEF0AF0AEEF0AF0C3EF0AF02E28D8A4E1
:10156000B4EF0AF0B6EF0AF0BEEF0AF0000E176E05
:10157000000E186E000E196E000E1A6E198E000EF7
:101580001A6ECBEF0AF0000E176E000E186E000EEA
:10159000196E000E1A6E1E50800B271A1E501E2444
:1015A0002F6E1DAED6EF0AF0D8EF0AF0D9EF0AF091
:1015B0002F802F50D8B4DFEF0AF0E1EF0AF0F6EFFA
:1015C0000AF02F28D8A4E7EF0AF0E9EF0AF0F1EFCC
:1015D0000AF0000E1B6E000E1C6E000E1D6E000E3B
:1015E0001E6E1D8E000E1E6EFEEF0AF0000E1B6EAC
:1015F000000E1C6E000E1D6E000E1E6E1B501C1089
:101600001D101E10D8A407EF0BF009EF0BF021EF0F
:101610000BF0000E176E000E186E000E196E000E05
:101620001A6E800E19127F0E1A1227501A1217C046
:1016300017F018C018F019C019F01AC01AF064EFAA
:101640000CF02E50D8A427EF0BF029EF0BF033EF5E
:101650000BF0000E176E000E186E000E196E000EC5
:101660001A6E64EF0CF02F502EC01FF0206A1F5E20
:10167000000E205A7F0E1F24286E000E2020296E97
:1016800017C023F018C024F019C025F01AC026F0A6
:10169000000E176E000E186E000E196E000E1A6EF8
:1016A000000E2A6E000E2B6E000E2C6E000E2D6E9C
:1016B000000E2F6E94EF0BF02F50D8B462EF0BF0AA
:1016C00064EF0BF07BEF0BF0D890233624362536F1
:1016D0002636D8901736183619361A362DAE73EFCF
:1016E0000BF075EF0BF076EF0BF01780D8902A36E1
:1016F0002B362C362D361B50235C1C5024581D5085
:1017000025581E502658D8A088EF0BF08AEF0BF012
:1017100093EF0BF02D8C1B50235E1C50245A1D5050
:10172000255A1E50265A2F2A190E2F649AEF0BF0B5
:101730009CEF0BF05CEF0BF02350241025102610CB
:10174000D8B4A5EF0BF0A7EF0BF0BFEF0BF02A809A
:10175000BFEF0BF0D8901736183619361A362DAE63
:10176000B4EF0BF0B6EF0BF0B7EF0BF01780D8909B
:101770002A362B362C362D362806D8A0290619AE47
:10178000C4EF0BF0C6EF0BF0AAEF0BF0000E2F6EBC
:101790002DAECDEF0BF0CFEF0BF0F3EF0BF0FF0E14
:1017A0002A141F6EFF0E2B14206EFF0E2C14216EB8
:1017B0007F0E2D14226E1F50201021102210D8B43D
:1017C000E4EF0BF0E6EF0BF0EAEF0BF0010E2F6EFB
:1017D000F3EF0BF017A0EFEF0BF0F1EF0BF0F3EFDF
:1017E0000BF0E6EF0BF02F50D8B4F9EF0BF0FBEF56
:1017F0000BF01FEF0CF0010E1726000E1822192215
:101800001A221AA006EF0CF008EF0CF01FEF0CF0F4
:1018100017C01FF018C020F019C021F01AC022F024
:1018200022342232213220321F321FC017F020C052
:1018300018F021C019F022C01AF0284A292A29BE1E
:101840002AEF0CF0295008E12828D8A02AEF0CF044
:101850002CEF0CF037EF0CF0000E296E2868000E0C
:10186000176E000E186E000E196E000E1A6E29BE4D
:1018700044EF0CF0295006E12804D8B042EF0CF0F8
:1018800044EF0CF052EF0CF0000E296E000E286EA3
:10189000000E176E000E186E000E196E000E1A6EF6
:1018A000000E276E28C02EF02EA059EF0CF05BEF33
:1018B0000CF05EEF0CF0198E5FEF0CF0199ED890D3
:1018C0002E301A6E15EF0BF012005350D8B46BEF98
:1018D0000CF06DEF0CF05CEF0DF009EC14F009C0AA
:1018E0002CF00AC02DF00BC02EF00CC02FF02F50A2
:1018F0002E100BE1C40E2C5C090E2D58D8A083EFDE
:101900000CF085EF0CF05EEF0DF056EC11F0155079
:10191000030B306E290E206E080E216E30C022F0AF
:10192000236A97EC13F0390E206E080E216E4D508D
:10193000226E236A22BE230697EC13F0050E206E5A
:10194000080E216EA7C022F0A8C023F0A9C024F081
:10195000AAC025F097EC13F0010E3024F66EF76A5A
:10196000080EF7220800F55089120A0E4D6EA7C026
:101970000AF0A8C00BF0A9C00CF0AAC00DF053ECFF
:1019800012F04DC028F0296A28BE290630502A6E70
:101990002B6A28502A1807E129502B18D8A4D3EF16
:1019A0000CF0D5EF0CF0E9EF0CF0960E126E080E6D
:1019B000136ED7EC13F04F2A512A620E4F64E3EFF7
:1019C0000CF0E5EF0CF0F0EF0CF0630E4F6EF0EF63
:1019D0000CF0502A740E126E080E136ED7EC13F032
:1019E000000E896E030E5118D8A4F9EF0CF0FBEF2E
:1019F0000CF02FEF0DF0040E526001EF0DF003EF2D
:101A00000DF02FEF0DF0F40E0001A75F010EA85BA3
:101A1000000EA95B000EAA5B000E516E522A180E32
:101A2000126E080E136ED7EC13F00001AB51A75DD8
:101A3000AC51A859AD51A959AE51AA59D8B023EF0C
:101A40000DF025EF0DF03AEF0DF0ABC0A7F0ACC0F4
:101A5000A8F0ADC0A9F0AEC0AAF03AEF0DF0050EA7
:101A60005018D8A436EF0DF038EF0DF03AEF0DF026
:101A70001EEC0FF0550E206E080E216E4FC022F0A6
:101A8000236A97EC13F06A0E206E080E216E50C088
:101A900022F0236A97EC13F0600E206E080E216E80
:101AA00051C022F0236A97EC13F04F507CEC12F0F7
:101AB00000EC14F05EEF0DF058EC13F01200116E14
:101AC0001150D8B466EF0DF068EF0DF08AEF0DF00D
:101AD0000CBE6FEF0DF06DEF0DF08AEF0DF009C049
:101AE0000DF00AC00EF00BC00FF00CC010F00D1E70
:101AF0000E1E0F1E101E0D2A000E0E220F22102287
:101B00000DC013F00EC014F00FC015F010C016F089
:101B100092EF0DF009C013F00AC014F00BC015F0DD
:101B20000CC016F009500A100B100C10D8A49BEF33
:101B30000DF09DEF0DF0A7EF0DF0000E096E000EF9
:101B40000A6E000E0B6E000E0C6E38EF0EF0960E45
:101B5000126EB1EF0DF0122AD890163215321432EF
:101B60001332000E13140D6E000E14140E6E000EC0
:101B700015140F6EFE0E1614106E0D500E100F1071
:101B80001010D8A4C6EF0DF0C8EF0DF0ABEF0DF0BC
:101B9000D6EF0DF0122A010E1326000E1422152284
:101BA0001622D8901632153214321332000E131446
:101BB0000D6E000E14140E6E000E15140F6EFF0E37
:101BC0001614106E0D500E100F101010D8A4EBEF5D
:101BD0000DF0EDEF0DF0CAEF0DF0F5EF0DF0120680
:101BE000D890133614361536163615BEFAEF0DF0AA
:101BF000FCEF0DF004EF0EF0020E126002EF0EF09B
:101C000004EF0EF0EFEF0DF012B009EF0EF00BEF56
:101C10000EF00CEF0EF0159ED890123212C00DF09F
:101C20000E6A0F6A106A0DC010F00F6A0E6A0D6A14
:101C30000D5013120E5014120F5015121050161290
:101C40001150D8B426EF0EF028EF0EF030EF0EF062
:101C50000CBE2FEF0EF02DEF0EF030EF0EF0168EC3
:101C600013C009F014C00AF015C00BF016C00CF038
:101C700012000B340C34126E1250D8A442EF0EF046
:101C800044EF0EF04EEF0EF0000E096E000E0A6EDD
:101C9000000E0B6E000E0C6EBBEF0EF009C00DF0C7
:101CA0000AC00EF00BC00FF00CC010F0200E5EEF5B
:101CB0000EF0D89010320F320E320D32E82E59EF5E
:101CC0000EF00D50116E0B8EFF0E0916FF0E0A1648
:101CD000FF0E0B16000E0C16960E125E12BE75EF5E
:101CE0000EF073EF0EF08BEF0EF01250800A970F8C
:101CF000D8B07DEF0EF07FEF0EF081EF0EF044EFE5
:101D00000EF0D8900C320B320A320932123E81EFBB
:101D10000EF0A3EF0EF01F0E126491EF0EF093EF92
:101D20000EF09BEF0EF044EF0EF0D89009360A3615
:101D30000B360C3612061250D8A4A1EF0EF0A3EF0A
:101D40000EF095EF0EF01150D8B4A9EF0EF0ABEFF6
:101D50000EF0B3EF0EF00C1E0B1E0A1E096C000EE7
:101D60000A220B220C2209C009F00AC00AF00BC09B
:101D70000BF00CC00CF01200000E0E6E0CBEC5EF86
:101D80000EF0C3EF0EF0CBEF0EF00B6C0C1ED8B0C4
:101D90000C2A010E0E6E0ABED2EF0EF0D0EF0EF03E
:101DA000D8EF0EF0096C0A1ED8B00A2A010E0E1ADE
:101DB000000E106E000E0F6E0B500C10D8B4E3EF37
:101DC0000EF0E5EF0EF00DEF0FF0010E0D6EEDEFE2
:101DD0000EF0D8900B360C360D2A0CAEF2EF0EF04A
:101DE000F4EF0EF0E9EF0EF0D8900F3610360B50EE
:101DF000095C0C500A58D8A000EF0FF002EF0FF06A
:101E000007EF0FF00B50095E0C500A5A0F80D89064
:101E10000C320B320D2EF4EF0EF00E50D8B413EF3F
:101E20000FF015EF0FF019EF0FF00F6C101ED8B078
:101E3000102A0FC009F010C00AF012003C0E7CEC12
:101E400012F0490E126E080E136ED7EC13F070EC00
:101E500013F0000E156E89A230EF0FF034EF0FF083
:101E6000146A142A35EF0FF0146A144689501418B6
:101E7000FD0B1418896E89A440EF0FF044EF0FF0AA
:101E8000146A142A45EF0FF0146A14461446895058
:101E90001418FB0B1418896E89A651EF0FF055EF3B
:101EA0000FF0146A142A56EF0FF0146A1446144601
:101EB000144689501418F70B1418896E89A863EF1B
:101EC0000FF067EF0FF0146A142A68EF0FF0146A2E
:101ED000143A89501418EF0B1418896E820E146E80
:101EE000DE0EE82EFED7142EFCD7152A090E156437
:101EF0007CEF0FF07EEF0FF02BEF0FF01200000ED3
:101F00000E6E0ABE88EF0FF086EF0FF08EEF0FF027
:101F1000096C0A1ED8B00A2A010E0E6E0CBE95EF8F
:101F20000FF093EF0FF099EF0FF00B6C0C1ED8B081
:101F30000C2A0B500C10D8B4A0EF0FF0A2EF0FF04A
:101F4000C6EF0FF0010E0D6EAAEF0FF0D8900B3612
:101F50000C360D2A0CAEAFEF0FF0B1EF0FF0A6EF7D
:101F60000FF00B50095C0C500A58D8A0BAEF0FF0D4
:101F7000BCEF0FF0C0EF0FF00B50095E0C500A5A87
:101F8000D8900C320B320D2EB1EF0FF00E50D8B4AA
:101F9000CCEF0FF0CEEF0FF0D2EF0FF0096C0A1E6E
:101FA000D8B00A2A09C009F00AC00AF01200000ECF
:101FB000116E000E126E000E136E000E146E0D5098
:101FC0000E100F101010D8B4E8EF0FF0EAEF0FF07A
:101FD00020EF10F0010E156EF4EF0FF0D8900D36D3
:101FE0000E360F361036152A10AEF9EF0FF0FBEF54
:101FF0000FF0EEEF0FF0D89011361236133614367C
:102000000D50095C0E500A580F500B5810500C58C8
:10201000D8A00DEF10F00FEF10F018EF10F00D50EA
:10202000095E0E500A5A0F500B5A10500C5A11806C
:10203000D89010320F320E320D32152EFBEF0FF00A
:1020400011C009F012C00AF013C00BF014C00CF05C
:1020500012000600D9CF07F0DACF08F0F2A433EF70
:1020600010F035EF10F03CEF10F0F294F80ED76E50
:10207000560ED66E0AEC13F09EA041EF10F043EF1F
:1020800010F04EEF10F09E90F80ECF6E560ECE6E02
:10209000010E4026000E412242224322F2A253EFBB
:1020A00010F055EF10F05BEF10F0F292000E1EEC06
:1020B00014F073EF10F0F0A060EF10F062EF10F08A
:1020C00068EF10F0010E1EEC14F0F09073EF10F0BA
:1020D000F0A26DEF10F06FEF10F073EF10F0020E42
:1020E0001EEC14F0F09208C0DAFF07C0D9FF579237
:1020F000110009EC14F009C015F00AC016F00BC06D
:1021000017F00CC018F00001AF51155C116EB05102
:102110001658126EB1511758136EB2511858146EEA
:102120000D50115C0E5012580F5013581050145887
:10213000D8A09DEF10F09FEF10F0C7EF10F089A22C
:10214000A4EF10F0A8EF10F0116A112AA9EF10F017
:10215000116A114689501118FD0B1118896E89A852
:10216000B4EF10F0B8EF10F0116A112AB9EF10F0C7
:10217000116A113A89501118EF0B1118896E15C0A8
:10218000AFF016C0B0F017C0B1F018C0B2F0120036
:10219000949C948E60C009F061C00AF062C00BF09C
:1021A00063C00CF0000E5FEC0DF009C01BF00AC01C
:1021B0001CF00BC01DF00CC01EF0000E176E240E9C
:1021C000186EF40E196E470E1A6E98EC0AF017C0CE
:1021D00030F018C031F019C032F01AC033F0000EE0
:1021E000346E000E356E800E366EBF0E376E38ECD4
:1021F00008F030C064F031C065F032C066F033C022
:1022000067F064C009F065C00AF066C00BF067C0F3
:102210000CF039EC0EF00950AF6E200EAC6E900E43
:10222000AB6E12000D500E100F101010D8B41BEF33
:1022300011F01DEF11F04DEF11F0010E116E27EFAF
:1022400011F0D8900D360E360F361036112A10AE1A
:102250002CEF11F02EEF11F021EF11F00D50095C71
:102260000E500A580F500B5810500C58D8A03BEF86
:1022700011F03DEF11F045EF11F00D50095E0E50D9
:102280000A5A0F500B5A10500C5AD89010320F3275
:102290000E320D32112E2EEF11F009C009F00AC0D6
:1022A0000AF00BC00BF00CC00CF0120049C009F092
:1022B0004AC00AF04BC00BF04CC00CF02D0E0D6E56
:1022C0007F0E0E6E950E0F6E4C0E106E8CEC11F094
:1022D000010E0924496E000E0A204A6E000E0B20E2
:1022E0004B6E000E0C204C6E49C017F04AC018F01F
:1022F0004BC019F04CC01AF0120E84EF11F0D890B8
:102300001A32193218321732E82E7FEF11F017C047
:1023100015F018C016F01200000E116E000E126EAD
:10232000000E136E000E146E09A099EF11F09BEFD2
:1023300011F0A3EF11F00D5011260E5012220F5084
:10234000132210501422D8900D360E360F36103648
:10235000D8900C320B320A32093209500A100B1095
:102360000C10D8A4B6EF11F0B8EF11F094EF11F003
:1023700011C009F012C00AF013C00BF014C00CF029
:102380001200EE0EF66E270EF76E000EF86E00EEDF
:102390009DF010EE12F00900F5CFEEFFE550E15090
:1023A000FAE1520EF66E280EF76E000EF86E00EE91
:1023B0004DF010EE08F00900F5CFEEFFE550E150CA
:1023C000FAE10001B46BB36BB26BB16BB06BAF6B86
:1023D00000EE40F00D0EEE6AE806FDE157905792D0
:1023E000000EF86E000112EF14F0000E8C6E05EF77
:1023F00012F08D828D901EEF12F08D928D801EEF67
:1024000012F08D828D801EEF12F00350046E056A6B
:102410000550000AD8B40FEF12F01EEF12F004506E
:10242000000AD8B4F9EF11F0010AD8B4FDEF11F0A9
:10243000030AD8B401EF12F01EEF12F09D0E012432
:10244000D96E000E0220DA6EDF508C6E12000A5038
:102450000B10D8B42EEF12F030EF12F041EF12F063
:102460000CC0E8FF02D83FEF12F00500FA6E0A50E8
:10247000FD6E0B50FE6EF850FF6EFA50120052EFD8
:1024800012F044504510D8B448EF12F04AEF12F061
:1024900052EF12F044C0D9FF45C0DAFF0CC0DFFF95
:1024A000444A452A1200000E0F6E000E106E000EF8
:1024B000116E000E126E6CEF12F0CCEC13F0030EE6
:1024C0000E6E980EE82EFED70E2EFCD7010E0F26AC
:1024D000000E1022112212220A500F5C0B501058CD
:1024E0000C5011580D501258D8A079EF12F07BEF14
:1024F00012F05DEF12F01200116E000E126E460E19
:102500001224D96EDA6A000EDA2211C009F00A6AC2
:10251000000E0C6E0A0E0B6E7FEC0FF00950DF6E92
:1025200011C009F00A6A000E0C6E0A0E0B6EBCECAC
:102530000EF00950116E122A010E1264A2EF12F071
:10254000A4EF12F07FEF12F0120009C00BF00AC0E6
:102550000CF0ADEF12F0094A0A2A09C0F6FF0AC0D2
:10256000F7FFF86A070EF76403D00800F55005D0AE
:10257000F6CFD9FFF7CFDAFFDF500009D8A4C3EFB9
:1025800012F0C5EF12F0ABEF12F00B50095C096EC0
:102590000C500A580A6E1200DEEF12F00EC00AF05C
:1025A0000FC00BF010C0F6FF11C0F7FF0800F55088
:1025B0000C6E0D6A27EC12F0104A112A10C0F6FFBB
:1025C00011C0F7FF0800F5500009D8A4EAEF12F097
:1025D000ECEF12F0CEEF12F01200F28EF28CF28AD3
:1025E000F294800ED56EF80ED76E560ED66ED58E3E
:1025F0009D809E90800ECD6EF80ECF6E560ECE6EE4
:10260000CD80000E406E000E416E000E426E000E38
:10261000436E1200460E4824D96EDA6A000EDA22A2
:10262000DF50066E0650016E026A48C003F0F5ECFA
:1026300011F0482A020E4818D8A421EF13F023EF16
:1026400013F025EF13F0000E486E1200BDEC13F0EE
:10265000800E0001606F250E616F000E626F000E2C
:10266000636FC8EC10F0EDEC12F0000E0001B56FD6
:10267000000EB66FC40E556E270E566E1200010E78
:10268000926E1F0E936E000E956E000E966E949CC9
:10269000948E000E806E000E816E000E826E000E13
:1026A000836E000E846EEDEC13F084EC13F01200D8
:1026B000F40E0D6E010E0E6E000E0F6E000E106EFB
:1026C00079EC10F081A867EF13F069EF13F06FEF6A
:1026D00013F0010E536E8992899800EC14F01200E9
:1026E000000E4F6E000E506E000E516E000E526EB8
:1026F000000E536EC40E0001A76F090EA86F000EE6
:10270000A96F000EAA6F1200C150F00B0E09C16E26
:10271000CF0EC116C30EC216C050C70B1009C06E33
:10272000C050F80B0109C06EC09EC2801200220E7C
:10273000266E000E276E55C016F056C017F020C04A
:1027400018F021C019F0260E1A6E000E1B6E50EC08
:1027500004F0120009500B02F3CF0DF0F4CF0EF08D
:1027600009500C02F3500E260A500B02F3500E26AD
:102770000DC009F00EC00AF01200720ED36E000EEA
:10278000BD6E0F0EC112070EB46E000E6D6E000E00
:10279000C26E3FEC13F0120081A6D1EF13F0D3EF1D
:1027A00013F0D6EF13F0030E18EC14F0120055C01E
:1027B0000EF056C00FF012C010F013C011F0CCECA8
:1027C00012F01200096E9EA8E8EF13F0EAEF13F082
:1027D000E3EF13F009C0ADFF1200F00EF16EF288C6
:1027E000F292F086F090F088F092F28E12003F069E
:1027F0005B4F666D7D077F67C4090000F401000030
:10280000000E406E000E416E000E426E000E436ED2
:10281000120040C009F041C00AF042C00BF043C0B2
:102820000CF0120026EC13F024EC14F007EF00F08B
:10283000096E09C04DF0010E4E6E1200016E01C00E
:102840004DF0010E4E6E120065EC0CF024EF14F00A
:0A2850001200FF000000000000006D
:020000040020DA
:08000000FFFFFFFFFFFFFFFF00
:020000040030CA
:0E00000000081F1EFF8185FF0FC00FE00F409C
:00000001FF
